{
  "contractName": "auction",
  "abi": [
    {
      "inputs": [
        {
          "internalType": "address payable",
          "name": "_beneficiary",
          "type": "address"
        }
      ],
      "stateMutability": "nonpayable",
      "type": "constructor"
    },
    {
      "anonymous": false,
      "inputs": [
        {
          "indexed": false,
          "internalType": "address",
          "name": "bidder",
          "type": "address"
        },
        {
          "indexed": false,
          "internalType": "uint256",
          "name": "amount",
          "type": "uint256"
        }
      ],
      "name": "bidderChanged",
      "type": "event"
    },
    {
      "anonymous": false,
      "inputs": [
        {
          "indexed": false,
          "internalType": "address",
          "name": "winner",
          "type": "address"
        },
        {
          "indexed": false,
          "internalType": "uint256",
          "name": "Amount",
          "type": "uint256"
        }
      ],
      "name": "end",
      "type": "event"
    },
    {
      "inputs": [],
      "name": "AuctionEndtime",
      "outputs": [
        {
          "internalType": "uint256",
          "name": "",
          "type": "uint256"
        }
      ],
      "stateMutability": "view",
      "type": "function",
      "constant": true
    },
    {
      "inputs": [],
      "name": "highestBid",
      "outputs": [
        {
          "internalType": "uint256",
          "name": "",
          "type": "uint256"
        }
      ],
      "stateMutability": "view",
      "type": "function",
      "constant": true
    },
    {
      "inputs": [],
      "name": "highestBidder",
      "outputs": [
        {
          "internalType": "address",
          "name": "",
          "type": "address"
        }
      ],
      "stateMutability": "view",
      "type": "function",
      "constant": true
    },
    {
      "inputs": [
        {
          "internalType": "address",
          "name": "",
          "type": "address"
        }
      ],
      "name": "pendingReturns",
      "outputs": [
        {
          "internalType": "uint256",
          "name": "",
          "type": "uint256"
        }
      ],
      "stateMutability": "view",
      "type": "function",
      "constant": true
    },
    {
      "inputs": [],
      "name": "bidding",
      "outputs": [],
      "stateMutability": "payable",
      "type": "function",
      "payable": true
    },
    {
      "inputs": [],
      "name": "withdraw",
      "outputs": [
        {
          "internalType": "bool",
          "name": "",
          "type": "bool"
        }
      ],
      "stateMutability": "nonpayable",
      "type": "function"
    },
    {
      "inputs": [],
      "name": "win",
      "outputs": [],
      "stateMutability": "nonpayable",
      "type": "function"
    }
  ],
  "bytecode": "0x608060405234801561001057600080fd5b506040516106753803806106758339818101604052602081101561003357600080fd5b8101908080519060200190929190505050806000806101000a81548173ffffffffffffffffffffffffffffffffffffffff021916908373ffffffffffffffffffffffffffffffffffffffff160217905550506105e1806100946000396000f3fe6080604052600436106100705760003560e01c80638babbbe51161004e5780638babbbe51461011e57806391f9015714610149578063d57bde791461018a578063db774c79146101b557610070565b806326b387bb146100755780633ccfd60b146100da578063473ca96c14610107575b600080fd5b34801561008157600080fd5b506100c46004803603602081101561009857600080fd5b81019080803573ffffffffffffffffffffffffffffffffffffffff1690602001909291905050506101bf565b6040518082815260200191505060405180910390f35b3480156100e657600080fd5b506100ef6101d7565b60405180821515815260200191505060405180910390f35b34801561011357600080fd5b5061011c610303565b005b34801561012a57600080fd5b506101336103e7565b6040518082815260200191505060405180910390f35b34801561015557600080fd5b5061015e6103ed565b604051808273ffffffffffffffffffffffffffffffffffffffff16815260200191505060405180910390f35b34801561019657600080fd5b5061019f610413565b6040518082815260200191505060405180910390f35b6101bd610419565b005b60016020528060005260406000206000915090505481565b600080600160003373ffffffffffffffffffffffffffffffffffffffff1673ffffffffffffffffffffffffffffffffffffffff16815260200190815260200160002054905060008111156102fa576000600160003373ffffffffffffffffffffffffffffffffffffffff1673ffffffffffffffffffffffffffffffffffffffff16815260200190815260200160002081905550600015153373ffffffffffffffffffffffffffffffffffffffff166108fc839081150290604051600060405180830381858888f19350505050151514156102f95780600160003373ffffffffffffffffffffffffffffffffffffffff1673ffffffffffffffffffffffffffffffffffffffff168152602001908152602001600020819055506000915050610300565b5b60019150505b90565b7f695d69ba2796e7b3c81686a783a631a20a87ea9b0a64eb61e8564c53a65722d0600360009054906101000a900473ffffffffffffffffffffffffffffffffffffffff16600254604051808373ffffffffffffffffffffffffffffffffffffffff1681526020018281526020019250505060405180910390a160008054906101000a900473ffffffffffffffffffffffffffffffffffffffff1673ffffffffffffffffffffffffffffffffffffffff166108fc6002549081150290604051600060405180830381858888f193505050501580156103e4573d6000803e3d6000fd5b50565b60045481565b600360009054906101000a900473ffffffffffffffffffffffffffffffffffffffff1681565b60025481565b6002543411610490576040517f08c379a00000000000000000000000000000000000000000000000000000000081526004018080602001828103825260158152602001807f6c657373207468616e206869676865737420626964000000000000000000000081525060200191505060405180910390fd5b60006002541461050c5760025460016000600360009054906101000a900473ffffffffffffffffffffffffffffffffffffffff1673ffffffffffffffffffffffffffffffffffffffff1673ffffffffffffffffffffffffffffffffffffffff168152602001908152602001600020600082825401925050819055505b33600360006101000a81548173ffffffffffffffffffffffffffffffffffffffff021916908373ffffffffffffffffffffffffffffffffffffffff160217905550346002819055507f94d93d09d16a1dc44a2dc1aa4637eafeb2465c98cbf87be54d134c74da1d908d3334604051808373ffffffffffffffffffffffffffffffffffffffff1681526020018281526020019250505060405180910390a156fea2646970667358221220e6941a69afaee22e7cd4cd45b69741014325577e8bc0a44dcd14ecd6781d2b9e64736f6c63430007060033",
  "immutableReferences": {},
  "source": "// SPDX-License-Identifier: sahil\r\npragma solidity ^ 0.7.6;\r\ncontract auction{\r\n    address payable beneficiary;\r\n    mapping(address => uint) public pendingReturns;\r\n    uint public highestBid;\r\n    address public highestBidder;\r\n    uint public AuctionEndtime;\r\n    event bidderChanged(address bidder , uint amount);\r\n    event end( address winner , uint Amount);\r\n    \r\n    constructor(address payable _beneficiary) public {\r\n        beneficiary = _beneficiary;\r\n       // AuctionEndtime = block.timestamp + _biddingTime;\r\n        \r\n    }\r\n    \r\n    function bidding() public payable{\r\n        \r\n        require(msg.value > highestBid , \"less than highest bid\");\r\n        //require(block.timestamp < AuctionEndtime ,\"auction ended\");\r\n        \r\n        if(highestBid!=0){\r\n            pendingReturns[highestBidder] += highestBid; \r\n        }\r\n        \r\n        highestBidder = msg.sender;\r\n        highestBid = msg.value;\r\n        emit bidderChanged(msg.sender , msg.value );\r\n    }\r\n    function withdraw() public returns(bool){\r\n       uint amount = pendingReturns[msg.sender];\r\n       if(amount > 0)\r\n       {\r\n           pendingReturns[msg.sender] = 0;\r\n           if(msg.sender.send(amount) == false){\r\n               pendingReturns[msg.sender] = amount;\r\n               return false;\r\n           }\r\n       }\r\n       return true;\r\n    }\r\n    function win() public {\r\n        //require( block.timestamp > AuctionEndtime , \"auction is in progress\");\r\n        emit end(highestBidder , highestBid);\r\n        beneficiary.transfer(highestBid);\r\n    }\r\n\r\n}",
  "sourcePath": "C:/Users/DELL/p1/contracts/Auction.sol",
  "compiler": {
    "name": "solc",
    "version": "0.7.6+commit.7338295f.Emscripten.clang"
  },
  "schemaVersion": "3.3.4",
  "updatedAt": "2021-04-28T15:16:06.898Z",
  "networkType": "ethereum",
  "devdoc": {
    "kind": "dev",
    "methods": {},
    "version": 1
  },
  "userdoc": {
    "kind": "user",
    "methods": {},
    "version": 1
  }
}